{
  "contractName": "Ownable",
  "abi": [
    {
      "constant": true,
      "inputs": [
        {
          "name": "account",
          "type": "address"
        }
      ],
      "name": "isOwner",
      "outputs": [
        {
          "name": "",
          "type": "bool"
        }
      ],
      "payable": false,
      "stateMutability": "view",
      "type": "function"
    }
  ],
  "bytecode": "0x608060405234801561001057600080fd5b5061010b806100206000396000f3fe6080604052348015600f57600080fd5b506004361060285760003560e01c80632f54bf6e14602d575b600080fd5b606c60048036036020811015604157600080fd5b81019080803573ffffffffffffffffffffffffffffffffffffffff1690602001909291905050506086565b604051808215151515815260200191505060405180910390f35b60008060009054906101000a900473ffffffffffffffffffffffffffffffffffffffff1673ffffffffffffffffffffffffffffffffffffffff168273ffffffffffffffffffffffffffffffffffffffff1614905091905056fea165627a7a723058206fa1a470e486b25fd28f01e5a96d4d5ee9bd2011e3bed3f4f19f54dadf42fd7c0029",
  "source": "pragma solidity >=0.4.21 <0.6.0;\n\n\n/**\n * @author Arvind Kalra (github.com/arvindkalra) and Pranav Singhal (github.com/pranav-singhal)\n * @title Ownable\n * @dev The Ownable contract has an owner address, and provides basic authorization control\n * functions, this simplifies the implementation of \"user permissions\". This adds two-phase\n * ownership control to OpenZeppelin's Ownable class. In this model, the original owner\n * designates a new owner but does not actually transfer ownership. The new owner then accepts\n * ownership and completes the transfer.\n */\ncontract Ownable {\n    address _owner;\n\n    modifier onlyOwner() {\n        require(isOwner(msg.sender), \"OwnerRole: caller does not have the Owner role\");\n        _;\n    }\n\n    function isOwner(address account) public view returns (bool) {\n        return account == _owner;\n    }\n}",
  "sourcePath": "/home/arvindkalra/Documents/upgradable-proxy-box/contracts/Ownable.sol",
  "compiler": {
    "name": "solc",
    "version": "0.5.8+commit.23d335f2.Emscripten.clang"
  },
  "schemaVersion": "3.0.16",
  "updatedAt": "2019-10-06T06:55:21.600Z",
  "devdoc": {
    "author": "Arvind Kalra (github.com/arvindkalra) and Pranav Singhal (github.com/pranav-singhal)",
    "details": "The Ownable contract has an owner address, and provides basic authorization control functions, this simplifies the implementation of \"user permissions\". This adds two-phase ownership control to OpenZeppelin's Ownable class. In this model, the original owner designates a new owner but does not actually transfer ownership. The new owner then accepts ownership and completes the transfer.",
    "methods": {},
    "title": "Ownable"
  },
  "userdoc": {
    "methods": {}
  }
}